:10FA0000B240805A200131400004D242F910570020
:10FA1000D242F8105600B01278FA32D0F000FD3F12
:10FA200030406EFDD2B30300FD275F4266004F4FAA
:10FA30003041073C1F535D4203002DF3FC27C24EAB
:10FA400067006E4F4E93F62330410D4F0E430E5E0E
:10FA50000E5E0E5E0E5E6C4D4F4C7C906100032C72
:10FA60003F50D0FF023C3F50A9FF0EDF1D53CD9306
:10FA70000000ED230F4E30410B120A12091208123A
:10FA80003150BCFFF2F0F7FF2200F2D22100F2D297
:10FA900027005F4220003FF20924F2F0FEFF22001F
:10FAA0003F4000C0BF9300000124004FD2D322008A
:10FAB000D2D32100F2D006002600F2D00600410089
:10FAC000D2436100C2436000F24068006200C2435A
:10FAD0006300F24031006400F24080FF6100C143E6
:10FAE0000200B01224FA3F902400FB230B43B01213
:10FAF00024FA3F9023000E20B01224FAC14F0000D8
:10FB0000B01224FAC14F01000F41B0124AFAC14F9E
:10FB10000300093C2E420E510E5BCE4F00001B53DA
:10FB20003B903F00E4232F420F510F5BCF43000077
:10FB30000F430E412E527D4E4F5D4F4F3B53FB23E3
:10FB40005E4103000F9E04243F4081FD304066FD6E
:10FB50003F4083FDB01232FA5941040079906D00A4
:10FB6000032479904D0080200B413B5005001B532E
:10FB7000FB902C000000FB23CB4300000F413F50C3
:10FB80000500B0124AFA0A4F0F4B1F531B53FB904C
:10FB90003A000000FB23CB430000B0124AFA084FA2
:10FBA00079906D0034203F4085FDB01232FA094350
:10FBB0007D4A0E4D0E110E110E110E115B4E70FD91
:10FBC000C14B00004B593DF00F005E4D70FDC14E22
:10FBD00001004B4B8E110B5E094B39F0FF000F41BA
:10FBE000B01232FA3853E4233BF00F00D14B70FDD2
:10FBF00001000F490F110F110F110F11D14F70FD9F
:10FC000000003F4087FDB01232FA0F41AC3C7990C2
:10FC10004D002A201B53B240A8A52A01B24000A5DE
:10FC20002C01B24040A528010F4A3F5000063F90EA
:10FC300000040D283A90FEFF0A2CE14B0000D14B46
:10FC4000010001000F41B0124AFACA4F00001A53D6
:10FC50002B533853E923B24000A52801B24010A528
:10FC60002C013F4089FD7F3C7990710058205F4115
:10FC700003007F902E004D203F4000C0B240A8A559
:10FC80002A01B24000A52C01B24002A52801CF43B1
:10FC90000000B24010A52C013F5000023F9000FA36
:10FCA000ED23B240A8A52A01B24000A52C01B24024
:10FCB00002A52801C24300FEB24010A52C01B240AB
:10FCC000A8A52A01B24000A52C01B24040A52801F8
:10FCD000B24000FAFEFFB24000A52801B24010A5D4
:10FCE0002C013F400010B240A8A52A01B24000A557
:10FCF0002C01B24002A52801CF430000B24010A55C
:10FD00002C013F5040003F90C010ED233F4090FD3C
:10FD10002A3C7F909AFF25203F409BFD243C799010
:10FD20006B0007203F40ADFDB01232FA8243200144
:10FD3000183C799067000F203F40B2FDB01232FAB4
:10FD40003B403C003F40B8FDB01232FA3B53FA232F
:10FD50003F40BAFD083C79903F0003203F40BEFD84
:10FD6000023C3F40ADFDB01232FA3040E2FA0013DF
:10FD70003031323334353637383961626364656621
:10FD8000002D002B0024002300244F4B2339610059
:10FD90002436663662306123633500245061636B1C
:10FDA000657453697A653D336623633900242330D3
:10FDB00030002430306330003000233333002454CB
:10FDC000303530303A303063303B30313A66653070
:10FDD000333B23383500436F70797269676874204C
:10FDE000C2A92032303133204B696D62616C6C20C6
:0AFDF000536F6674776172650000BE
:10FFE00020FA20FA20FA20FA20FA20FA20FA20FA41
:10FFF00020FA20FA20FA20FA20FA20FA20FA00FA51
:040000030000FA00FF
:00000001FF
